:100000000C94D0010C94F8010C94F8010C94D808CD
:100010000C94B4080C9490080C94F8010C94F8011A
:100020000C94F8010C94F8010C94F8010C94F8016C
:100030000C94F8010C94F8010C94F8010C94F8015C
:100040000C9446080C94F8010C9414080C94EE07D8
:100050000C94F8010C94F8010C94F8010C94F8013C
:100060000C94F8010C94F80107634236B79BD8A7AB
:100070001A39685618AEBAAB558C1D3CB7CC5763CD
:10008000BD6DEDFD753EF6177231BF000000803F7B
:1000900008000000BE922449123EABAAAA2ABECD97
:1000A000CCCC4C3E00000080BEABAAAAAA3E000009
:1000B0000000BF000000803F000000000008417801
:1000C000D3BB4387D1133D190E3CC3BD4282AD2B38
:1000D0003E68EC8276BED98FE1A93E4C80EFFFBE30
:1000E00001C4FF7F3F00000000000000000024006A
:1000F00027002A0000000008000201000003040796
:10010000000000000000000000C201000100050026
:1001100005000300030000E1000001000F000F00D4
:100120000D000D0000960000020019001A001700D3
:100130001700127A00000700200021001D001D009A
:10014000807000000B002300230020002000004BE3
:10015000000014003700370034003400403800003D
:100160001E004B004B0048004800482600003100AC
:10017000710071006F006F00E42500003100710014
:1001800071006F006F008025000032007200720065
:1001900070007000C01200006E00E900E900E60087
:1001A000E60060090000E500D801D801D501D501BD
:1001B000B0040000D301B403B403B103B103580287
:1001C0000000B40367076707620762072C0100009D
:1001D0006707DD0EDD0EDA0EDA0E200072706D009C
:1001E00052504D0052435420434449002043444957
:1001F0002052504D2D53656E736F72002052435440
:10020000204A65746920546F6F6C730052504D3AE8
:10021000002020524354204344492052504D002096
:100220004344492052504D2D53656E736F72002028
:10023000524354204A65746920546F6F6C730020D8
:100240004344492052504D2D53656E736F72002008
:10025000524354204A65746920546F6F6C730000D8
:10026000070E091C1B1215383F363124232A2D7026
:10027000777E796C6B6265484F464154535A5DE016
:10028000E7EEE9FCFBF2F5D8DFD6D1C4C3CACD90C6
:10029000979E998C8B8285A8AFA6A1B4B3BABDC72F
:1002A000C0C9CEDBDCD5D2FFF8F1F6E3E4EDEAB766
:1002B000B0B9BEABACA5A28F88818693949D9A27D6
:1002C00020292E3B3C35321F18111603040D0A5706
:1002D00050595E4B4C45426F68616673747D7A89F4
:1002E0008E878095929B9CB1B6BFB8ADAAA3A4F9A6
:1002F000FEF7F0E5E2EBECC1C6CFC8DDDAD3D46996
:100300006E676075727B7C51565F584D4A43441945
:100310001E171005020B0C21262F283D3A33344EB0
:1003200049404752555C5B7671787F6A6D64633EE5
:1003300039303722252C2B0601080F1A1D1413AE55
:10034000A9A0A7B2B5BCBB9691989F8A8D8483DE85
:10035000D9D0D7C2C5CCCBE6E1E8EFFAFDF4F30083
:10036000000000250028002B0000000000230026CC
:10037000002900040404040404040402020202022A
:100380000203030303030301020408102040800159
:100390000204081020010204081020004109E00DA9
:1003A00011241FBECFEFD8E0DEBFCDBF24E0A6EB07
:1003B000B1E001C01D92A533B207E1F711E0A0E062
:1003C000B1E0EAE9F9E202C005900D92A63BB1075F
:1003D000D9F711E0CFECD1E004C02197FE010E94D3
:1003E000A312CE3CD107C9F70E94390A0C94C0145D
:1003F0000C94000080914202909143028C509440F2
:10040000A1F0809129048E7F809329048FB7F894FE
:1004100010924102109240022CE034E030934302EB
:10042000209342028FBF81E0089580E00895A0E20A
:10043000B2E020E040E250E15A0F21111FC0FC0160
:1004400034913323D9F03C93119601965A13F5CF8A
:1004500080E090E020E030E2DC01A05EBD4F2111A1
:1004600010C0FB01E80FF91FE491EE2351F0509604
:10047000EC9301968031910579F708954C9321E032
:10048000E3CF50963C9321E0F4CFCF92DF92EF92EE
:10049000FF920F931F93CF93DF936C017A018B012F
:1004A000C0E0D0E0CE15DF0589F0D8016D918D0157
:1004B000D601ED91FC910190F081E02DC6010995E6
:1004C000892B11F47E0102C02196ECCFC701DF9188
:1004D000CF911F910F91FF90EF90DF90CF900895F3
:1004E000FC01538D448D252F30E0842F90E0821B3A
:1004F000930B541710F0CF96089501970895FC01BF
:10050000918D828D981761F0828DDF01A80FB11D4A
:100510005D968C91928D9F5F9F73928F90E008956E
:100520008FEF9FEF0895FC01918D828D981731F028
:10053000828DE80FF11D858D90E008958FEF9FEF7C
:100540000895FC01918D228D892F90E0805C9F4F52
:10055000821B91098F739927089584E492E00E9489
:10056000A10221E0892B09F420E0822F0895FC01EB
:10057000848DDF01A80FB11DA35ABF4F2C91848D2C
:1005800090E001968F739927848FA689B7892C9361
:10059000A089B1898C9180648C93938D848D9813FC
:1005A00006C00288F389E02D80818F7D80830895C5
:1005B000EF92FF920F931F93CF93DF93EC0181E0B3
:1005C000888F9B8D8C8D981305C0E889F98980816F
:1005D00085FD24C0F62E0B8D10E00F5F1F4F0F73AB
:1005E0001127E02E8C8DE8120CC00FB607FCFACF55
:1005F000E889F989808185FFF5CFCE010E94B70295
:10060000F1CF8B8DFE01E80FF11DE35AFF4FF08211
:100610000B8FEA89FB898081806207C0EE89FF89A0
:100620006083E889F98980818064808381E090E03B
:10063000DF91CF911F910F91FF90EF900895CF938D
:10064000DF93EC01888D8823C9F0EA89FB898081DA
:1006500085FD05C0A889B9898C9186FD0FC00FB6AC
:1006600007FCF5CF808185FFF2CFA889B9898C91ED
:1006700085FFEDCFCE010E94B702E7CFDF91CF918A
:10068000089580E090E0892B29F00E94AD0281114D
:100690000C940000089590E0FC01EC50FF4F349161
:1006A000FC01E957FC4F2491FC01ED58FC4FE4910B
:1006B000EE2309F43BC0332339F1333091F038F4A1
:1006C0003130A9F0323001F584B58F7D12C037305A
:1006D00091F03830A1F03430B9F4809180008F7DF2
:1006E00003C0809180008F77809380000DC084B517
:1006F0008F7784BD09C08091B0008F7703C080914F
:10070000B0008F7D8093B000F0E0EE0FFF1FE15A44
:10071000FC4FA591B4918FB7F894EC91611103C08F
:1007200020952E2301C02E2B2C938FBF0895CF939D
:10073000DF9390E0FC01E957FC4F2491FC01ED5858
:10074000FC4F8491882361F190E0880F991FFC0190
:10075000E651FF4FC591D491FC01E15AFC4FA591A0
:10076000B491611109C09FB7F894888120958223C4
:100770008883EC912E230BC0623061F49FB7F8940C
:100780003881822F809583238883EC912E2B2C93A4
:100790009FBF06C08FB7F894E8812E2B28838FBFA8
:1007A000DF91CF9108953FB7F8948091DB0190914C
:1007B000DC01A091DD01B091DE0126B5A89B05C04A
:1007C0002F3F19F00196A11DB11D3FBFBA2FA92FD0
:1007D000982F8827820F911DA11DB11DBC01CD014D
:1007E00043E0660F771F881F991F4A95D1F7089538
:1007F0002FB7F8946091D7017091D8018091D901F9
:100800009091DA012FBF0895DC015196ED91FC9192
:100810005297908150968C9180958923808308957A
:1008200020914202309143022817390781F49091B8
:10083000400280914102981751F0E0914002F0E0AF
:10084000EA54FE4F8081082E000C990B08958FEF1B
:100850009FEF0895209142023091430228173907F3
:1008600039F48FB7F89410924102109240028FBF72
:10087000089520914202309143022817390769F404
:10088000809141022091400290E08096821B910964
:1008900060E270E00E94591208958FEF9FEF089573
:1008A000209142023091430228173907B9F4909100
:1008B0004002809141029817A1F0E0914002F0E0DF
:1008C000EA54FE4F80812091400230E02F5F3F4F7D
:1008D0002F7133272093400290E008958FEF9FEF10
:1008E00008958EEF9FEF089520E001972FEF8F3F3F
:1008F0009207D9F70895EF92FF920F931F93CF932A
:10090000DF93C0914202D0914302209709F443C083
:100910008B899C890E94740488E0E82EF12C10E0F9
:1009200001E08D899E890E947404EE85FF85908187
:100930008D85892311F0102B03C0802F80951823FB
:10094000000F81E0E81AF10861F78D899E890E9405
:1009500074048F89988D0E947404809141022091C3
:10096000400290E001968F71992730E0821793073B
:1009700079F0E0914102F0E0EA54FE4F108380915B
:10098000410290E001968F7199278093410203C044
:100990008D8D81608D8FDF91CF911F910F91FF9091
:1009A000EF900895089580E090E00895CF92DF924F
:1009B000EF92FF920F931F93CF93DF93EC01898DFA
:1009C0009A8D009729F421E030E03B832A8364C0AC
:1009D000FFB6F89428E030E090E081E0482F46230D
:1009E00009F09F5F880F21503109C1F78E8D811169
:1009F0009F5FE62E192F1095CE010E940404898D69
:100A00009A8D04960E94740488E0C82ED12C01E0CF
:100A1000802F8E2139F0E989FA8990818889892B84
:100A2000808303C0CE010E940404898D9A8D0E94A8
:100A30007404000F81E0C81AD10851F78E8D882305
:100A400039F0E989FA8990818889892B808303C0EC
:100A5000CE010E940404898D9A8D0E94740410FFB7
:100A600007C0E989FA8990818889892B808303C02E
:100A7000CE010E940404898D9A8D0E947404E98934
:100A8000FA8990818889892B8083FFBE8B8D9C8D0C
:100A90000E94740481E090E0DF91CF911F910F914B
:100AA000FF90EF90DF90CF900895CF93DF93C0E059
:100AB000D0E080910B0490E0C817D907ECF42097A0
:100AC00061F00197C817D90741F081E0209109042E
:100AD00030910A04C217D30709F480E0FE01EB5AF3
:100AE000FC4F608180932A048CE094E00E94D6043D
:100AF00010922A042196DDCFDF91CF9108950097BF
:100B000069F0FC0101900020E9F73197AF01481B23
:100B1000590BBC0184E492E00C94450280E090E023
:100B20000895CF93DF930E947F05EC018DE291E061
:100B30000E947F058C0F9D1FDF91CF9108952F920A
:100B40003F924F925F926F927F928F929F92AF925D
:100B5000BF92CF92DF92EF92FF920F931F93CF93AA
:100B6000DF93CDB7DEB7A0970FB6F894DEBF0FBE08
:100B7000CDBF909153039923C9F02EE720935503DD
:100B800022E92093560323E22093570390935803BE
:100B900090910201992311F0915003C010925303D8
:100BA00096E09093020104E010E002C000E010E043
:100BB00090915303911197C19EE7909355039FE93C
:100BC000909356031092570398E29093580394EA37
:100BD000909359039CEA90935A0397E090935B0398
:100BE00010925C038111E8C080E4809357037090F9
:100BF00054038090E1029090E20208E010E0612C42
:100C0000D62CD70CED2DF0E0E815F9050CF0C7C097
:100C1000DF01AA0FBB1FAD5CBC4FAD90BC90A1140F
:100C2000B10409F4B8C0D29430EFD322C8018F5177
:100C30009D4F7C01DC01AC58BF4FDC92ED5DFC4F59
:100C4000C080CC2021F093E09C1590F104C0D50128
:100C50006D917C9130C06C2D70E080E090E00E943E
:100C6000640E9B01AC0160E070E080E291E40E94C0
:100C7000D410F50120813181428153810E94C50E3B
:100C80001B012C0120E030E0A9010E94CF1020E0E0
:100C900030E040E05FE387FD05C0C201B1010E9482
:100CA000BB0F04C0C201B1010E94BA0F0E9499108B
:100CB000F3E0FC15B0F0F701EC58FF4F8D2D81608B
:100CC00080837F79D12C20E2C29ED02CCC241124A9
:100CD0006C297D2931966083319670830D5F1F4F9B
:100CE0005AC084E0C81211C0F701EC58FF4F8D2D97
:100CF000846080833196D5018C91808331961196E2
:100D00008C9180833196108219C0B6E0BC15C8F072
:100D1000F701EC58FF4F8D2D85608083F5018281AE
:100D2000F701EB58FF4F8083D50111968C911197F5
:100D30003196808331968C918F7180830C5F1F4F29
:100D40002AC0B9E0CB1227C0F701EC58FF4F8D2D18
:100D500089608083F5018381F701EB58FF4F808321
:100D6000D50112968C9112973196808311968C91B1
:100D70001197319680838C91F801E75AFC4F80835C
:100D80008C91853421F08E3421F4108202C0B0E2BF
:100D9000B0830B5F1F4F6394E6E06E1231CF86E0A5
:100DA000870D282F30E0281539051CF48093540353
:100DB0007BC01092540378C0E0911F02F0E0EE0F68
:100DC000FF1FED51FD4F608171817E01F1E1EF0E5A
:100DD000F11CC7010E94230EE0911F02F0E0EE0F0C
:100DE000FF1FED5FFC4F608171818E010F5F1F4F10
:100DF000C8010E94230E80911F0280935D03F701BA
:100E000001900020E9F73197EE19FF09EE0FEE0F80
:100E1000EE0FD8010D900020E9F71197A01BB10B40
:100E2000A370EA2BE0935E03D7012AE030E0F701DC
:100E300001900020E9F73197AF014E195F09F901E0
:100E4000EC58FF4FBD016E197F096417750738F420
:100E50009D91EF51FD4F90832F5F3F4FE8CFEF51B2
:100E6000FD4FA801201B310BB901640F751FD8017C
:100E70000D900020E9F71197A01BB10B7A01E01A41
:100E8000F10AEA16FB0628F4DA019D91AD0191936F
:100E9000EBCF8B018F5F90E06091E1027091E202F5
:100EA0000E94591280931F02809157039EEF900F6A
:100EB000892B8093570322E0E0E0822F90E0801797
:100EC00091075CF4DC01AB5ABC4F8C91E827F0E051
:100ED000E15AFD4FE4912F5FF0CFD801AB5ABC4FE0
:100EE000EC930F5F1F4FC8018F519D4FFC01EC58D1
:100EF000FF4F2EEF208310930A0400930904D801BA
:100F0000AA5ABC4FE0E2F2E020E22E0F31913D936D
:100F10002E13FCCFFC01EB56FF4F8FEF80830E5D4D
:100F20001F4F00930B0481E0A0960FB6F894DEBF2C
:100F30000FBECDBFDF91CF911F910F91FF90EF902A
:100F4000DF90CF90BF90AF909F908F907F906F90E9
:100F50005F904F903F902F9008950F931F93262FEF
:100F600090E0FC01E957FC4F6491FC01ED58FC4F07
:100F7000E491222311F0462F01C040E0F0E0EE0F93
:100F8000FF1FE759FC4F8591949100E211EA27E099
:100F900030E00E94FC086115710581059105B1F0F2
:100FA000DC01CB010196A11DB11D24E0880F991F22
:100FB000AA1FBB1F2A95D1F7BC01CD0133E096953E
:100FC0008795779567953A95D1F703C060E070E013
:100FD000CB011F910F9108950E94A0141F920F92B0
:100FE0000FB60F9211242F933F934F935F936F93FC
:100FF0007F938F939F93AF93BF93EF93FF9384E47B
:1010000092E00E94B702FF91EF91BF91AF919F9143
:101010008F917F916F915F914F913F912F910F90A1
:101020000FBE0F901F9018951F920F920FB60F9240
:1010300011242F938F939F93EF93FF93E09154028A
:10104000F09155028081E0915A02F0915B0282FD9D
:1010500012C0908180915D028F5F8F7320915E023C
:10106000821751F0E0915D02F0E0EC5BFD4F958F4F
:1010700080935D0201C08081FF91EF919F918F91DC
:101080002F910F900FBE0F901F9018951F920F92E7
:101090000FB60F9211242F933F938F939F93AF938B
:1010A000BF938091D7019091D801A091D901B091BF
:1010B000DA013091D60126E0230F2D3720F4029675
:1010C000A11DB11D05C029E8230F0396A11DB11D67
:1010D0002093D6018093D7019093D801A093D90192
:1010E000B093DA018091DB019091DC01A091DD01E8
:1010F000B091DE010196A11DB11D8093DB0190939B
:10110000DC01A093DD01B093DE01BF91AF919F910F
:101110008F913F912F910F900FBE0F901F901895B8
:101120001F920F920FB60F9211242F933F934F935C
:101130005F936F937F938F939F93AF93BF93EF933F
:10114000FF930E947B04FF91EF91BF91AF919F911C
:101150008F917F916F915F914F913F912F910F9060
:101160000FBE0F901F9018951F920F920FB60F92FF
:1011700011242F933F934F935F936F937F938F939C
:101180009F93AF93BF93EF93FF930E947B04FF91D4
:10119000EF91BF91AF919F918F917F916F915F91EF
:1011A0004F913F912F910F900FBE0F901F90189568
:1011B0001F920F920FB60F9211242F933F934F93CC
:1011C0005F936F937F938F939F93AF93BF93EF93AF
:1011D000FF930E947B04FF91EF91BF91AF919F918C
:1011E0008F917F916F915F914F913F912F910F90D0
:1011F0000FBE0F901F901895CF92DF92EF92FF9243
:101200000F931F93E82FF92F05C0015011092109F1
:10121000310961F1908196239417B9F305C001500B
:1012200011092109310911F1908196239413F7CF07
:10123000C12CD12CE12CF12C0AC08FEFC81AD80A8E
:10124000E80AF80A0C151D052E053F0579F0808186
:101250008623841791F36C2D7D2D8E2D9F2D1F914C
:101260000F91FF90EF90DF90CF90089560E070E0D5
:1012700080E090E01F910F91FF90EF90DF90CF9072
:101280000895109247021092460288EE93E0A0E083
:10129000B0E08093480290934902A0934A02B09331
:1012A0004B028DE091E0909345028093440285ECDF
:1012B00090E0909351028093500284EC90E09093E0
:1012C00053028093520280EC90E0909355028093F9
:1012D000540281EC90E0909357028093560282EC86
:1012E00090E0909359028093580286EC90E090939E
:1012F0005B0280935A0210925D0210925E0210927D
:101300005F021092600210922C0410922B04109233
:101310002E0410922D041092300410922F0466E0D7
:1013200070E080E090E00E94D6130097A1F09093C7
:101330002C0480932B0425E030E030932E0420937E
:101340002D0420912F0430913004232B09F086C006
:10135000FC01108283C080912B0490912C04009793
:1013600011F00E943E1310922C0410922B04109244
:10137000300410922F0410922E0410922D0410921B
:101380000F0410920E0488EE93E0A0E0B0E080938A
:10139000100490931104A0931204B09313048FE1EE
:1013A00091E090930D0480930C041092200410920D
:1013B0001F0410922204109221041092240410920F
:1013C00023041092260410922504109228041092EF
:1013D0002704809129048E7F8093290461E084E0B2
:1013E0000E94970361E084E00E944B03EBE8F3E086
:1013F000E491E0931C04E7E7F3E0E491F0E0EE0F02
:10140000FF1FE15AFC4F8591949190931E048093A5
:101410001D0462E083E00E94970383E08093180438
:10142000EAE8F3E0E491E0931904E6E7F3E0E491FD
:10143000F0E0EE0FFF1FE759FC4F859194919093D8
:101440001B0480931A04109253031092E20210922C
:10145000E10210920B0410925403089525E030E04D
:101460003093300420932F0460E371E00E94B9149C
:1014700086CFCF93DF93CDB7DEB728970FB6F8941A
:10148000DEBF0FBECDBF789484B5826084BD84B5C5
:10149000816084BD85B5826085BD85B5816085BD6F
:1014A00080916E00816080936E0010928100809127
:1014B00081008260809381008091810081608093AF
:1014C0008100809180008160809380008091B100D4
:1014D00084608093B1008091B00081608093B000FF
:1014E00080917A00846080937A0080917A00826093
:1014F00080937A0080917A008E7F80937A00809129
:101500007A00806880937A001092C100E0915402C2
:10151000F091550282E08083E0915002F0915102F7
:101520001082E0915202F091530287E6808310927C
:101530005C02E0915802F091590286E08083E091CC
:101540005602F0915702808180618083E0915602BB
:10155000F0915702808188608083E0915602F0917B
:101560005702808180688083E0915602F091570293
:1015700080818F7D808362E085E00E9497038FE207
:1015800091E00E94910586E391E00E947F054091E1
:101590002F045091300460912B0470912C0484E44A
:1015A00092E00E9445028DE291E00E947F0582E573
:1015B00091E00E9491058DE791E00E9491058FE2F4
:1015C00091E00E9491058FEA91E00E9491058FE2DF
:1015D00091E00E94910561E08DE00E94970361E037
:1015E0008DE00E944B0361E083E00E94970310921C
:1015F00028041092270410922604109225041092B9
:1016000024041092230410922204109221041092B8
:10161000200410921F0488E091E020E030E0FC01FB
:101620004591559165917491443E5542610571050E
:1016300009F034C04EE0429FC001439F900D112439
:10164000FC01E45FFE4F25913491309320042093F8
:101650001F04FC01E25FFE4F259134913093220478
:1016600020932104FC01E05FFE4F259134913093DB
:10167000240420932304FC01EE5EFE4F2591349157
:101680003093260420932504FC01EC5EFE4F8591E7
:101690009491909328048093270407C02F5F3F4FB5
:1016A0000E962F30310509F0BACF80912304909126
:1016B0002404892B09F446C0909118049631E0F572
:1016C00020916800983050F031E09E3008F430E00E
:1016D00081E001C0880F3A95EAF701C084E0822BCF
:1016E00080936800983038F09E3040F0963148F48E
:1016F000ECE6F0E008C0EDE6F0E005C0EBE6F0E077
:1017000002C0E0E0F0E04081983030F481E001C0B8
:10171000880F9A95EAF70EC0292F30E09E3018F412
:101720002850310902C02E50310981E001C0880FD4
:101730002A95EAF7842B80838091250490912604D2
:101740000E9474040E94FA016CEE71E08CEF91E04B
:101750000E94170284EE91E09093E4028093E302EA
:101760008AED91E090930403809303038091E1025A
:101770009091E2029C012F5F3F4FF901EE0FFF1F96
:10178000ED51FD4F40EE51E051834083FC01EE0FDF
:10179000FF1FEB5FFC4F4CED51E051834083FC0198
:1017A000EE0FFF1FEB5CFC4F11821082F901ED5D23
:1017B000FC4F108202969093E2028093E1028FE048
:1017C00092E0909336038093350384E08093240362
:1017D00081E00E949F050E9455050E94D3034B01A2
:1017E0005C0124E1C22ED12CE12CF12C0E94D30308
:1017F000DC01CB0188199909AA09BB09883E9340ED
:10180000A105B10558F0F1E0CF1AD108E108F108BF
:1018100028EE820E23E0921EA11CB11CC114D1043B
:10182000E104F10419F780911F028111D1CF60E02A
:101830008DE00E944B030E94F8030E9455050E9410
:10184000F8032B013C0160E083E00E94970362E013
:1018500084E00E9497030E94FA018CE094E00E94C9
:101860002A048CE094E00E943904892B61F40E94E0
:10187000F803DC01CB0184199509A609B70906977D
:10188000A105B10570F38CE094E00E9439041816AC
:10189000190614F58CE094E00E9450042091000198
:1018A0003091010128173907B9F090930101809315
:1018B000000120911D0230911E028037910531F008
:1018C000803E910549F42F5F3F4F02C021503109FE
:1018D00030931E0220931D0280911D0290911E02E2
:1018E0008230910509F4F8C010921C0210921B027C
:1018F0000097A1F1019709F0F5C01092FF01109235
:10190000EF0161E172E08FEF91E00E94180E6FED40
:1019100071E08FEF91E00E94AE146CE072E08FEE08
:1019200091E00E94180E1092DF0160910F027091F9
:10193000100280E090E00E94640E20E030E040E081
:101940005FE30E94BB0F4B015C01212C312C1DEC8D
:101950000CEC8CECF82E9DE3E92E05C06FE372E0F1
:101960008FE492E0BDC020E030E040E251E4612F1E
:10197000702F8F2D9E2D0E94C50E6B018B83998336
:10198000A50194010E945F0E181644F06FEF261A0D
:10199000360A1C2D0D2DFB80E980E5CF2114310482
:1019A00041F480E38093DF01E1E0F0E0FA83E98332
:1019B00002C01A821982C12CD12C89819A818C0D86
:1019C0009D1D98878F83C214D30409F43FC0212F33
:1019D000302F4F2D5E2DC501B4010E9427100E94AB
:1019E00099106B837C838D839E836F817885615290
:1019F0007E4F4AE08B819C810E942A0E2B813C8184
:101A0000B901330F880B990B0E94660E212F302FDE
:101A10004F2D5E2D0E94C50E9B01AC01C501B40186
:101A20000E94BA0F4B015C0120E030E040E251E43B
:101A3000612F702F8F2D9E2D0E942710162F072F9C
:101A4000F82EE92E3FEFC31AD30AB7CFFC01E152BB
:101A5000FE4F10826FED71E08FEE91E00E94AE14A8
:101A6000EFEFF1E001900020E9F73197EF5FF140EF
:101A70004E2F2FEF31E0A0E2B2E080E0841720F497
:101A8000F90190819C9302C0F0E2FC938F5F2F5F7D
:101A90003F4F1196803191F7EFEEF1E00190002079
:101AA000E9F73197EF5EF1404E2F80E090E0DC01E6
:101AB000A05EBD4F841740F49C0121513E4FF901B7
:101AC000208150962C9303C0F0E25096FC9301962F
:101AD0008031910561F706C06FE172E08FE292E01C
:101AE0000E9417028091190290911A020196909318
:101AF0001A0280931902059744F081E00E949F0525
:101B000010921A021092190203C080E00E949F05F1
:101B10000E94F80361E084E00E949703809117021D
:101B200090911802892B39F4C2018856954C9093F4
:101B30001802809317028091170290911802092EC3
:101B4000000CAA0BBB0B84159505A605B705A8F5D7
:101B500061E085E00E94AD076B017C0160E085E0FB
:101B60000E94AD079B01AC012C0D3D1D4E1D5F1D5C
:101B700020931302309314024093150250931602DF
:101B800060E472E48FE090E00E946D1230931202E4
:101B9000209311022F3F6FEF360729F410921002A5
:101BA00010920F020AC0ECE3E29FC001E39F900D88
:101BB00011249093100280930F020E9441033BCEA8
:101BC0008FE191E090930D0480930C042091180410
:101BD000263140F5283028F02E3030F0ECE6F0E0E9
:101BE00005C0EDE6F0E002C0EBE6F0E03081283021
:101BF00038F481E090E001C0880F2A95EAF70FC021
:101C0000422F50E02E3018F44850510902C04E5077
:101C1000510981E090E001C0880F4A95EAF780956C
:101C20008323808380912B0490912C040C943E1389
:101C3000FB01DC010D900020E9F7119705900D9252
:101C40000020E1F70895FB01DC0105900D920020D2
:101C5000E1F70895BB274A3031F4992322F4BDE21D
:101C6000909581959F4F0C94360EBB27FB0155270D
:101C7000AA27880F991FAA1FA41710F0A41B8395E9
:101C80005051B9F7A05DAA3308F0A95DA193009760
:101C900079F7B111B1931192CB010C944F0EDC0185
:101CA000FC01672F71917723E1F7329704C07C9193
:101CB0006D9370836291AE17BF07C8F308950E94B9
:101CC000A10E08F481E00895E89409C097FB3EF462
:101CD00090958095709561957F4F8F4F9F4F992379
:101CE000A9F0F92F96E9BB279395F69587957795F7
:101CF0006795B795F111F8CFFAF4BB0F11F460FFB7
:101D00001BC06F5F7F4F8F4F9F4F16C0882311F00E
:101D100096E911C0772321F09EE8872F762F05C022
:101D2000662371F096E8862F70E060E02AF09A95BD
:101D3000660F771F881FDAF7880F9695879597F9B2
:101D40000895990F0008550FAA0BE0E8FEEF16164C
:101D50001706E807F907C0F012161306E407F5079F
:101D600098F0621B730B840B950B39F40A2661F013
:101D7000232B242B252B21F408950A2609F4A140B6
:101D8000A6958FEF811D811D08950E94D80E0C9499
:101D9000490F0E943B0F38F00E94420F20F095231C
:101DA00011F00C94320F0C94380F11240C947D0F09
:101DB0000E945A0F70F3959FC1F3950F50E0551F85
:101DC000629FF001729FBB27F00DB11D639FAA2790
:101DD000F00DB11DAA1F649F6627B00DA11D661FDF
:101DE000829F2227B00DA11D621F739FB00DA11D00
:101DF000621F839FA00D611D221F749F3327A00DBA
:101E0000611D231F849F600D211D822F762F6A2F55
:101E100011249F5750409AF0F1F088234AF0EE0FBA
:101E2000FF1FBB1F661F771F881F91505040A9F7E7
:101E30009E3F510580F00C94320F0C947D0F5F3F54
:101E4000E4F3983ED4F3869577956795B795F79523
:101E5000E7959F5FC1F7FE2B880F911D969587959B
:101E600097F9089597F99F6780E870E060E008951A
:101E70009FEF80EC089500240A94161617061806A2
:101E80000906089500240A9412161306140605067E
:101E90000895092E0394000C11F4882352F0BB0F0F
:101EA00040F4BF2B11F460FF04C06F5F7F4F8F4F72
:101EB0009F4F089557FD9058440F551F59F05F3FAD
:101EC00071F04795880F97FB991F61F09F3F79F05C
:101ED00087950895121613061406551FF2CF4695DE
:101EE000F1DF08C0161617061806991FF1CF869560
:101EF0007105610508940895E894BB276627772744
:101F0000CB0197F908952F923F924F925F926F9273
:101F10007F928F929F92AF92BF92CF92DF92EF9279
:101F2000FF920F931F93CF93DF93CDB7DEB7CA1BFA
:101F3000DB0B0FB6F894DEBF0FBECDBF09942A8825
:101F4000398848885F846E847D848C849B84AA84CD
:101F5000B984C884DF80EE80FD800C811B81AA815A
:101F6000B981CE0FD11D0FB6F894DEBF0FBECDBF25
:101F7000ED0108955058BB27AA270E94D20F0C9458
:101F8000490F0E943B0F38F00E94420F20F039F4B5
:101F90009F3F19F426F40C94380F0EF4E095E7FBFC
:101FA0000C94320FE92F0E945A0F58F3BA176207A8
:101FB00073078407950720F079F4A6F50C947C0F3D
:101FC0000EF4E0950B2EBA2FA02D0B01B901900154
:101FD0000C01CA01A0011124FF27591B99F0593F98
:101FE00050F4503E68F11A16F040A22F232F342FE0
:101FF0004427585FF3CF469537952795A795F0402E
:102000005395C9F77EF41F16BA0B620B730B840B42
:10201000BAF09150A1F0FF0FBB1F661F771F881FFA
:10202000C2F70EC0BA0F621F731F841F48F4879552
:1020300077956795B795F7959E3F08F0B0CF939544
:10204000880F08F09927EE0F9795879508950E94BD
:102050003B100C94490F0E94420F58F00E943B0F16
:1020600040F029F45F3F29F00C94320F51110C9489
:102070007D0F0C94380F0E945A0F68F39923B1F327
:10208000552391F3951B550BBB27AA27621773079E
:10209000840738F09F5F5F4F220F331F441FAA1F32
:1020A000A9F335D00E2E3AF0E0E832D091505040EE
:1020B000E695001CCAF72BD0FE2F29D0660F771F9C
:1020C000881FBB1F261737074807AB07B0E809F082
:1020D000BB0B802DBF01FF2793585F4F3AF09E3F07
:1020E000510578F00C94320F0C947D0F5F3FE4F3B0
:1020F000983ED4F3869577956795B795F7959F5F4A
:10210000C9F7880F911D9695879597F90895E1E095
:10211000660F771F881FBB1F621773078407BA07F4
:1021200020F0621B730B840BBA0BEE1F88F7E0954F
:1021300008950E94A0106894B1110C947D0F089529
:102140000E94620F88F09F5798F0B92F9927B751D6
:10215000B0F0E1F0660F771F881F991F1AF0BA954B
:10216000C9F714C0B13091F00E947C0FB1E008951E
:102170000C947C0F672F782F8827B85F39F0B93F10
:10218000CCF3869577956795B395D9F73EF49095FE
:102190008095709561957F4F8F4F9F4F08950E9456
:1021A000A10E08F48FEF0895FA01EE0FFF1F30968D
:1021B00021053105A1F16115710561F48038BFE396
:1021C0009B0749F168949038810561F08038BFEF32
:1021D0009B0741F099234AF5FF3FE10531052105B1
:1021E00019F1E8940894E795D901AA2329F4AB2FB3
:1021F000BE2FF85FD0F310C0FF5F70F4A695E0F734
:10220000F73950F019F0FF3A38F49F779F930DD0CB
:102210000F9007FC9058089546F00C94380F60E03A
:1022200070E080E89FE308954FE79F775F934F93B7
:102230003F932F930E94CF112F913F914F915F9128
:102240000E94C50E0C942C1129F416F00C94320F38
:102250000C947C0F0C94380F0E94620FA8F39638F0
:10226000A0F707F80F92E8942BE33AEA48EB5FE710
:102270000E94DB0E0F920F920F924DB75EB70F9236
:102280000E941712E8E6F0E00E945E114F915F9104
:10229000EF91FF91E595EE1FFF1F49F0FE57E068B3
:1022A0004427EE0F441FFA95E1F74195550B0E9424
:1022B00091110F9007FE0C9485110895DF93CF9331
:1022C0001F930F93FF92EF92DF927B018C01689432
:1022D00006C0DA2EEF010E94D80EFE01E894A59107
:1022E0002591359145915591A6F3EF010E94D20FAA
:1022F000FE019701A801DA9469F7DF90EF90FF9053
:102300000F911F91CF91DF9108959B01AC0160E087
:1023100070E080E89FE30C9427100C94320F0C942B
:102320004B120E94620FD8F39923C9F3940F511DE9
:10233000A3F39150504094F059F0882332F0660F87
:10234000771F881F91505040C1F79E3F51052CF7D1
:10235000880F911D9695879597F908955F3FACF08A
:10236000983E9CF0BB27869577956795B79508F4BE
:10237000B1609395C1F7BB0F58F711F460FFE8CF38
:102380006F5F7F4F8F4F9F4FE3CF0C947D0F16F001
:102390000C944B120C94380F68940C94320F0E94DA
:1023A000620FA8F39923C1F3AEF3DF93CF931F938A
:1023B0000F93FF92C92FDD2788232AF02197660FFC
:1023C000771F881FDAF720E030E040E85FEB9FE3FB
:1023D000883920F0803E38F021968F770E94BB0F1D
:1023E000E0E9F0E004C00E94BB0FEDEBF0E00E94DA
:1023F0005E118B01BE01EC01FB2E6F5771097595C3
:10240000771F880B990B0E94660E28E132E741E3A3
:102410005FE30E94D80EAF2D9801AE01FF900F919F
:102420001F91CF91DF910E94D20F0C94490FFA01B6
:10243000DC01AA0FBB1F9B01AC01BF5728F4222768
:1024400033274427507820C0B75190F4AB2F002495
:10245000469537952795011CA395D2F3002071F07E
:10246000220F331F441FB395DAF30ED00C94BA0F2A
:1024700061307105A0E88A07B94630F49B01AC01D0
:102480006627772788279078309621F0208331833C
:102490004283538308959F3F31F0915020F48795F4
:1024A00077956795B795880F911D9695879597F9BC
:1024B000089597FB072E16F4009407D077FD09D0F6
:1024C0000E948F1207FC05D03EF4909581959F4F96
:1024D0000895709561957F4F0895A1E21A2EAA1B69
:1024E000BB1BFD010DC0AA1FBB1FEE1FFF1FA217C4
:1024F000B307E407F50720F0A21BB30BE40BF50BC1
:10250000661F771F881F991F1A9469F76095709549
:10251000809590959B01AC01BD01CF010895AA1B48
:10252000BB1B51E107C0AA1FBB1FA617B70710F0BE
:10253000A61BB70B881F991F5A95A9F780959095F0
:10254000BC01CD010895EE0FFF1F0590F491E02D21
:102550000994CF93DF938230910510F482E090E0EC
:10256000E0913304F091340420E030E0C0E0D0E0AA
:10257000309711F14081518148175907C0F0481731
:10258000590761F482819381209719F09B838A8394
:102590002BC0909334048093330426C02115310559
:1025A00019F04217530718F49A01BE01DF01EF0139
:1025B0000280F381E02DDCCF2115310509F1281BC4
:1025C000390B2430310590F412968D919C9113971C
:1025D0006115710521F0FB019383828304C0909300
:1025E000340480933304FD01329644C0FD01E20FB0
:1025F000F31F81939193225031092D933C933AC05C
:102600002091310430913204232B41F420910501B3
:10261000309106013093320420933104209103015C
:10262000309104012115310541F42DB73EB7409199
:10263000070150910801241B350BE0913104F09102
:102640003204E217F307A0F42E1B3F0B28173907BB
:1026500078F0AC014E5F5F4F2417350748F04E0FFE
:102660005F1F50933204409331048193919302C0D1
:10267000E0E0F0E0CF01DF91CF9108950F931F9339
:10268000CF93DF93009709F48CC0FC01329713823B
:10269000128200913304109134040115110581F464
:1026A00020813181820F931F2091310430913204B7
:1026B0002817390779F5F0933204E093310471C09B
:1026C000D80140E050E0AE17BF0750F412962D91AC
:1026D0003C911397AD012115310509F1D901F3CFD3
:1026E0009D01DA013383228360817181860F971FF8
:1026F0008217930769F4EC0128813981260F371F6F
:102700002E5F3F4F318320838A819B819383828315
:10271000452B29F4F0933404E093330442C013961C
:10272000FC93EE931297ED01499159919E01240F6C
:10273000351FE217F30771F480819181840F951F93
:10274000029611969C938E938281938113969C930B
:102750008E931297E0E0F0E0D80112968D919C9153
:102760001397009719F0F8018C01F6CF8D919C9189
:1027700098012E5F3F4F820F931F209131043091BB
:1027800032042817390769F4309729F41092340479
:102790001092330402C01382128210933204009309
:1027A0003104DF91CF911F910F910895A0E0B0E027
:1027B000ECEDF3E10C94870FEC01009721F4CB01D1
:1027C0000E94A912B8C0FC01E60FF71F9C0122501D
:1027D0003109E217F30708F4ACC0D9010D911C913F
:1027E000119706171707B0F00530110508F49FC0C0
:1027F000C80104978617970708F499C00250110979
:10280000061B170B019311936D937C93CF010E94CC
:102810003E138DC05B01A01AB10A4C01800E911EBF
:10282000A0913304B091340440E050E0E12CF12C4D
:10283000109709F44AC0A815B905D1F56D907C90A0
:102840001197630182E0C80ED11CCA14DB0480F129
:10285000A3014A195B096A0182E0C80ED11C1296D5
:10286000BC9012971396AC91B5E0CB16D10440F012
:10287000B282A38351834083D9016D937C930AC0B4
:102880000E5F1F4FC301800F911FF9019183808359
:10289000EB2DFA2FE114F10431F0D7011396FC93DC
:1028A000EE93129744C0F0933404E09333043FC096
:1028B0008D919C9111974817590708F4AC017D013F
:1028C00012960D90BC91A02DB3CF809131049091C0
:1028D000320488159905E1F446175707C8F480912A
:1028E000030190910401009741F48DB79EB7409188
:1028F000070150910801841B950BE817F907C8F4EC
:10290000F0933204E0933104F901718360830FC0C6
:10291000CB010E94A9127C01009759F0A801BE01C9
:102920000E94A514CE010E943E13C70104C0CE012F
:1029300002C080E090E0CDB7DEB7EEE00C94A30FCC
:1029400081E090E0F8940C94C014FB01DC0102C01B
:1029500001900D9241505040D8F70895FB01DC01E1
:102960000D900020E9F7119701900D920020E1F7FA
:102970000895FB01DC0101900D920020E1F708951C
:1029800011E0CFECD1E004C0FE010E94A312219619
:0A299000C03DD107C9F7F894FFCF4E
:10299A00F0000600003504800000000000D802455F
:1029AA000270021F03A1027F02930200000000D6F8
:1029BA00044502D3042A043904500410040D0A0001
:1029CA00762E312E300052432D54686F7567687425
:1029DA0073204344492052504D2D53656E736F72D4
:1029EA00200064657369676E206279205465726F8E
:1029FA002053616C6D696E656E20402052432D54E0
:102A0A00686F7567687473203230313700467265B3
:102A1A006520616E64206F70656E2D736F757263C9
:102A2A0065202D2052656C656173656420756E643E
:102A3A006572204D49542D6C6963656E7365005249
:062A4A00656164792100C2
:00000001FF
